{
  "contractName": "ProductFactory",
  "abi": [
    {
      "anonymous": false,
      "inputs": [
        {
          "indexed": false,
          "internalType": "uint256",
          "name": "_productIndex",
          "type": "uint256"
        },
        {
          "indexed": false,
          "internalType": "uint256",
          "name": "_steps",
          "type": "uint256"
        },
        {
          "indexed": false,
          "internalType": "address",
          "name": "_address",
          "type": "address"
        }
      ],
      "name": "Process",
      "type": "event"
    },
    {
      "inputs": [],
      "name": "_owner",
      "outputs": [
        {
          "internalType": "address",
          "name": "",
          "type": "address"
        }
      ],
      "stateMutability": "view",
      "type": "function",
      "constant": true
    },
    {
      "inputs": [],
      "name": "isOwner",
      "outputs": [
        {
          "internalType": "bool",
          "name": "",
          "type": "bool"
        }
      ],
      "stateMutability": "view",
      "type": "function",
      "constant": true
    },
    {
      "inputs": [
        {
          "internalType": "uint256",
          "name": "",
          "type": "uint256"
        }
      ],
      "name": "products",
      "outputs": [
        {
          "internalType": "enum ProductFactory.Steps",
          "name": "_step",
          "type": "uint8"
        },
        {
          "internalType": "string",
          "name": "_productName",
          "type": "string"
        },
        {
          "internalType": "uint256",
          "name": "_price",
          "type": "uint256"
        },
        {
          "internalType": "contract Product",
          "name": "_product",
          "type": "address"
        }
      ],
      "stateMutability": "view",
      "type": "function",
      "constant": true
    },
    {
      "inputs": [
        {
          "internalType": "string",
          "name": "_productName",
          "type": "string"
        },
        {
          "internalType": "uint256",
          "name": "_price",
          "type": "uint256"
        }
      ],
      "name": "postProduct",
      "outputs": [],
      "stateMutability": "nonpayable",
      "type": "function"
    },
    {
      "inputs": [
        {
          "internalType": "uint256",
          "name": "_productIndex",
          "type": "uint256"
        }
      ],
      "name": "placeOrder",
      "outputs": [],
      "stateMutability": "payable",
      "type": "function",
      "payable": true
    },
    {
      "inputs": [
        {
          "internalType": "uint256",
          "name": "_productIndex",
          "type": "uint256"
        }
      ],
      "name": "deliver",
      "outputs": [],
      "stateMutability": "nonpayable",
      "type": "function"
    }
  ],
  "bytecode": "0x6080604052336000806101000a81548173ffffffffffffffffffffffffffffffffffffffff021916908373ffffffffffffffffffffffffffffffffffffffff160217905550611131806100536000396000f3fe6080604052600436106100555760003560e01c80633bd5d1731461005a5780637acc0b20146100955780638f32d59b14610198578063b2bdfa7b146101c7578063ba2255f41461021e578063c2c0a8481461024c575b600080fd5b34801561006657600080fd5b506100936004803603602081101561007d57600080fd5b810190808035906020019092919050505061031e565b005b3480156100a157600080fd5b506100ce600480360360208110156100b857600080fd5b8101908080359060200190929190505050610559565b604051808560028111156100de57fe5b60ff168152602001806020018481526020018373ffffffffffffffffffffffffffffffffffffffff1673ffffffffffffffffffffffffffffffffffffffff168152602001828103825285818151815260200191508051906020019080838360005b8381101561015a57808201518184015260208101905061013f565b50505050905090810190601f1680156101875780820380516001836020036101000a031916815260200191505b509550505050505060405180910390f35b3480156101a457600080fd5b506101ad61064e565b604051808215151515815260200191505060405180910390f35b3480156101d357600080fd5b506101dc6106a5565b604051808273ffffffffffffffffffffffffffffffffffffffff1673ffffffffffffffffffffffffffffffffffffffff16815260200191505060405180910390f35b61024a6004803603602081101561023457600080fd5b81019080803590602001909291905050506106ca565b005b34801561025857600080fd5b5061031c6004803603604081101561026f57600080fd5b810190808035906020019064010000000081111561028c57600080fd5b82018360208201111561029e57600080fd5b803590602001918460018302840111640100000000831117156102c057600080fd5b91908080601f016020809104026020016040519081016040528093929190818152602001838380828437600081840152601f19601f82011690508083019250505050505050919291929080359060200190929190505050610915565b005b61032661064e565b610398576040517f08c379a00000000000000000000000000000000000000000000000000000000081526004018080602001828103825260208152602001807f4f776e61626c653a2063616c6c6572206973206e6f7420746865206f776e657281525060200191505060405180910390fd5b600160028111156103a557fe5b6001600083815260200190815260200160002060000160009054906101000a900460ff1660028111156103d457fe5b14610447576040517f08c379a000000000000000000000000000000000000000000000000000000000815260040180806020018281038252601d8152602001807f5468652070726f64756374206861736e2774206265656e20706169642e00000081525060200191505060405180910390fd5b60026001600083815260200190815260200160002060000160006101000a81548160ff0219169083600281111561047a57fe5b02179055507fd50d794bf6b83dc87ce03cc61a7581795d3dd4c52ac6317f8eb89c7424a37649816001600084815260200190815260200160002060000160009054906101000a900460ff1660028111156104d057fe5b6001600085815260200190815260200160002060030160009054906101000a900473ffffffffffffffffffffffffffffffffffffffff16604051808481526020018381526020018273ffffffffffffffffffffffffffffffffffffffff1673ffffffffffffffffffffffffffffffffffffffff168152602001935050505060405180910390a150565b60016020528060005260406000206000915090508060000160009054906101000a900460ff1690806001018054600181600116156101000203166002900480601f0160208091040260200160405190810160405280929190818152602001828054600181600116156101000203166002900480156106185780601f106105ed57610100808354040283529160200191610618565b820191906000526020600020905b8154815290600101906020018083116105fb57829003601f168201915b5050505050908060020154908060030160009054906101000a900473ffffffffffffffffffffffffffffffffffffffff16905084565b60008060009054906101000a900473ffffffffffffffffffffffffffffffffffffffff1673ffffffffffffffffffffffffffffffffffffffff163373ffffffffffffffffffffffffffffffffffffffff1614905090565b6000809054906101000a900473ffffffffffffffffffffffffffffffffffffffff1681565b34600160008381526020019081526020016000206002015414610755576040517f08c379a00000000000000000000000000000000000000000000000000000000081526004018080602001828103825260168152602001807f596f75206861766520746f207061792066756c6c20210000000000000000000081525060200191505060405180910390fd5b6000600281111561076257fe5b6001600083815260200190815260200160002060000160009054906101000a900460ff16600281111561079157fe5b14610804576040517f08c379a000000000000000000000000000000000000000000000000000000000815260040180806020018281038252601a8152602001807f5468652070726f6475637420646f65736e27742065786973742e00000000000081525060200191505060405180910390fd5b600180600083815260200190815260200160002060000160006101000a81548160ff0219169083600281111561083657fe5b02179055507fd50d794bf6b83dc87ce03cc61a7581795d3dd4c52ac6317f8eb89c7424a37649816001600084815260200190815260200160002060000160009054906101000a900460ff16600281111561088c57fe5b6001600085815260200190815260200160002060030160009054906101000a900473ffffffffffffffffffffffffffffffffffffffff16604051808481526020018381526020018273ffffffffffffffffffffffffffffffffffffffff1673ffffffffffffffffffffffffffffffffffffffff168152602001935050505060405180910390a150565b61091d61064e565b61098f576040517f08c379a00000000000000000000000000000000000000000000000000000000081526004018080602001828103825260208152602001807f4f776e61626c653a2063616c6c6572206973206e6f7420746865206f776e657281525060200191505060405180910390fd5b600030826002546040516109a290610b9c565b808473ffffffffffffffffffffffffffffffffffffffff1673ffffffffffffffffffffffffffffffffffffffff1681526020018381526020018281526020019350505050604051809103906000f080158015610a02573d6000803e3d6000fd5b5090508060016000600254815260200190815260200160002060030160006101000a81548173ffffffffffffffffffffffffffffffffffffffff021916908373ffffffffffffffffffffffffffffffffffffffff160217905550826001600060025481526020019081526020016000206001019080519060200190610a88929190610ba9565b508160016000600254815260200190815260200160002060020181905550600060016000600254815260200190815260200160002060000160006101000a81548160ff02191690836002811115610adb57fe5b02179055507fd50d794bf6b83dc87ce03cc61a7581795d3dd4c52ac6317f8eb89c7424a3764960025460016000600254815260200190815260200160002060000160009054906101000a900460ff166002811115610b3557fe5b83604051808481526020018381526020018273ffffffffffffffffffffffffffffffffffffffff1673ffffffffffffffffffffffffffffffffffffffff168152602001935050505060405180910390a1600260008154809291906001019190505550505050565b6104ad80610c4f83390190565b828054600181600116156101000203166002900490600052602060002090601f016020900481019282601f10610bea57805160ff1916838001178555610c18565b82800160010185558215610c18579182015b82811115610c17578251825591602001919060010190610bfc565b5b509050610c259190610c29565b5090565b610c4b91905b80821115610c47576000816000905550600101610c2f565b5090565b9056fe608060405234801561001057600080fd5b506040516104ad3803806104ad8339818101604052606081101561003357600080fd5b81019080805190602001909291908051906020019092919080519060200190929190505050816000819055508060028190555082600360006101000a81548173ffffffffffffffffffffffffffffffffffffffff021916908373ffffffffffffffffffffffffffffffffffffffff1602179055505050506103f4806100b96000396000f3fe6080604052600436106100385760003560e01c8063295b4e171461032b5780632986c0e514610356578063a035b1fe146103815761031c565b3661031c576000600154146100b5576040517f08c379a000000000000000000000000000000000000000000000000000000000815260040180806020018281038252600c8152602001807f5061696420616c7265616479000000000000000000000000000000000000000081525060200191505060405180910390fd5b346000541461012c576040517f08c379a000000000000000000000000000000000000000000000000000000000815260040180806020018281038252600f8152602001807f506c65617365207061792066756c6c000000000000000000000000000000000081525060200191505060405180910390fd5b346001600082825401925050819055506000600360009054906101000a900473ffffffffffffffffffffffffffffffffffffffff1673ffffffffffffffffffffffffffffffffffffffff1634600254604051602401808281526020019150506040516020818303038152906040527fba2255f4000000000000000000000000000000000000000000000000000000007bffffffffffffffffffffffffffffffffffffffffffffffffffffffff19166020820180517bffffffffffffffffffffffffffffffffffffffffffffffffffffffff83818316178352505050506040518082805190602001908083835b6020831061023b5780518252602082019150602081019050602083039250610218565b6001836020036101000a03801982511681845116808217855250505050505090500191505060006040518083038185875af1925050503d806000811461029d576040519150601f19603f3d011682016040523d82523d6000602084013e6102a2565b606091505b5050905080610319576040517f08c379a00000000000000000000000000000000000000000000000000000000081526004018080602001828103825260128152602001807f7472616e73616374696f6e206661696c6564000000000000000000000000000081525060200191505060405180910390fd5b50005b34801561032857600080fd5b50005b34801561033757600080fd5b506103406103ac565b6040518082815260200191505060405180910390f35b34801561036257600080fd5b5061036b6103b2565b6040518082815260200191505060405180910390f35b34801561038d57600080fd5b506103966103b8565b6040518082815260200191505060405180910390f35b60015481565b60025481565b6000548156fea264697066735822122095b1309c3a16782614eae0cee46cebb11e6af366ee4d52be8caf316e043427d664736f6c63430006010033a264697066735822122072833e832343b99efaf85c761f389b58b9dcf019c84f8bc363f858f4b5c5f9a164736f6c63430006010033",
  "source": "pragma solidity ^0.6.0;\nimport\"./Product.sol\";\nimport \"./Ownable.sol\";\n\ncontract ProductFactory is Ownable{\n    \n    enum Steps{ Posted , Paid , Delivered }\n    \n    struct ProductStruct {\n        ProductFactory.Steps _step;\n        string _productName;\n        uint _price;\n        Product _product;\n    }\n    mapping(uint => ProductStruct) public products;\n    \n    uint index;\n    \n    event Process(uint _productIndex , uint _steps, address _address);\n    \n    function postProduct(string memory _productName , uint _price)public onlyOwner {\n        Product product = new Product(this, _price, index);\n        products[index]._product = product;\n        products[index]._productName = _productName;\n        products[index]._price = _price;\n        products[index]._step = Steps.Posted;\n        emit Process( index , uint(products[index]._step), address(product));\n        index++;\n    }\n    function placeOrder(uint _productIndex )public payable {\n        require(products[_productIndex ]._price == msg.value,\"You have to pay full !\");\n        require(products[_productIndex ]._step == Steps.Posted,\"The product doesn't exist.\");\n        products[_productIndex ]._step = Steps.Paid;\n         emit Process( _productIndex  , uint(products[_productIndex ]._step), address(products[_productIndex ]._product));\n    }\n    function deliver(uint _productIndex ) public onlyOwner{\n        require(products[_productIndex ]._step == Steps.Paid,\"The product hasn't been paid.\");\n        products[_productIndex ]._step = Steps.Delivered;\n         emit Process( _productIndex  , uint(products[_productIndex ]._step), address(products[_productIndex ]._product));\n    }\n        \n}",
  "sourcePath": "/Users/peichichien/Documents/truffle-mydapp/contracts/ProductFactory.sol",
  "compiler": {
    "name": "solc",
    "version": "0.6.1+commit.e6f7d5a4.Emscripten.clang"
  },
  "schemaVersion": "3.1.0",
  "updatedAt": "2020-04-14T11:07:00.580Z",
  "networkType": "ethereum",
  "devdoc": {
    "methods": {
      "isOwner()": {
        "details": "Returns true if the caller is the current owner."
      }
    }
  },
  "userdoc": {
    "methods": {}
  }
}